:020000040800F2
:1000000000000820FF030008F9030008F9030008B6
:10001000F9030008F9030008F903000800000000D4
:10002000000000000000000000000000F9030008CC
:10003000F903000800000000F90300081D0500088E
:10004000F9030008F9030008F9030008F9030008A0
:10005000F9030008F9030008F9030008F903000890
:10006000F9030008F9030008F9030008F903000880
:10007000F9030008F9030008F9030008F903000870
:10008000F9030008F9030008F9030008F903000860
:10009000F9030008F9030008F9030008F903000850
:1000A000F9030008F9030008F9030008F903000840
:1000B000F9030008F9030008F9030008F903000830
:1000C000F9030008F9030008F9030008F903000820
:1000D000F9030008F9030008F9030008F903000810
:1000E000F9030008F9030008F9030008F903000800
:1000F000F9030008F9030008F9030008F9030008F0
:10010000F9030008F9030008F9030008F9030008DF
:10011000F9030008F9030008F9030008F9030008CF
:10012000F9030008F9030008F9030008F9030008BF
:10013000F9030008F9030008F9030008F9030008AF
:10014000F9030008F9030008F9030008F90300089F
:10015000F9030008F9030008F9030008F90300088F
:10016000F9030008F9030008F9030008F90300087F
:10017000F9030008F9030008F9030008F90300086F
:10018000F9030008F9030008F9030008F90300085F
:10019000F9030008F9030008F9030008F90300084F
:1001A000F9030008F9030008F9030008F90300083F
:1001B000F9030008F9030008F9030008F90300082F
:1001C000F9030008F9030008F9030008F90300081F
:1001D000F9030008F9030008F9030008F90300080F
:1001E000F9030008F9030008F9030008F9030008FF
:1001F000F903000880B400AF234B1B6B224A43F085
:1002000002031363214B1B68204A43F00103136070
:100210001E4B5B681D4A23F0010353601B4B9B6818
:100220001A4A23F003039360184BDB68174A23F044
:100230000303D360154B9B69144A43F00103936198
:10024000134B00221A6004E0114B1B680133104A63
:1002500013600F4B1B680F4A9342F5D90B4B9B69F8
:100260000A4A43F480339361094B00221A6004E088
:10027000074B1B680133064A1360054B1B68054A90
:100280009342F5D9D6E700BF00380240000402408F
:10029000100000209F86010080B400AF234B1B6B31
:1002A000224A43F002031363214B1B68204A43F4A4
:1002B000804313601E4B5B681D4A23F0800353602C
:1002C0001B4B9B681A4A23F440439360184BDB682E
:1002D000174A23F44043D360154B9B69144A43F0FB
:1002E00080039361134B00221A6004E0114B1B68DA
:1002F0000133104A13600F4B1B680F4A9342F5D924
:100300000B4B9B690A4A43F400039361094B00229B
:100310001A6004E0074B1B680133064A1360054B63
:100320001B68054A9342F5D9D6E700BF0038024062
:1003300000040240140000203F0D030080B400AF11
:10034000234B1B6B224A43F002031363214B1B68B0
:10035000204A43F0805313601E4B5B681D4A23F410
:10036000804353601B4B9B681A4A23F040539360B1
:10037000184BDB68174A23F04053D360154B9B6939
:10038000144A43F480439361134B00221A6004E043
:10039000114B1B680133104A13600F4B1B680F4A47
:1003A0009342F5D90B4B9B690A4A43F08043936112
:1003B000094B00221A6004E0074B1B680133064A10
:1003C0001360054B1B68054A9342F5D9D6E700BF79
:1003D0000038024000040240180000207F1A060086
:1003E00080B500AF032000F055F9024800F016F97F
:1003F000FEE700BF0000002080B400AFFEE780B53C
:1004000086B000AF1A4A1B4BD31A7B60194B7B6135
:10041000194B3B610023FB600AE03A69131D3B6105
:100420007B69191D796112681A60FB680133FB60F2
:10043000FA687B689A42F0D3104A114BD31A7B605A
:100440000F4B7B610023BB6007E07B691A1D7A615B
:1004500000221A60BB680133BB60BA687B689A42AD
:10046000F3D3FFF7BDFF00BF1837BD4680BD00BF07
:100470001000002000000020BC0600081C00002026
:100480001000002080B483B000AF03463960FB71D8
:1004900097F90730002B0ADB3B68DAB20C4997F971
:1004A00007301201D2B20B4483F800230AE03B6804
:1004B000DAB20849FB7903F00F03043B1201D2B210
:1004C0000B441A7600BF0C37BD4680BC704700BF96
:1004D00000E100E000ED00E080B582B000AF7860A0
:1004E0007B68013BB3F1807F01D301230FE00A4A0F
:1004F0007B68013B53600F214FF0FF30FFF7C2FFD5
:10050000054B00229A60044B07221A60002318460C
:100510000837BD4680BD00BF10E000E080B483B066
:1005200000AF72B6EFF3098121E9700F81F30988FA
:10053000EFF309837B607A680D4B1B681A600C4BE4
:100540001B685B680A4A13604F480068006880F3C4
:100550000988BFF36F8FEFF30981B1E8700F81F362
:10056000098862B600BF0C37BD4680BC704700BF2B
:10057000B401002080B483B000AF0123FB710CE014
:10058000FA79FB79013BD20009490A440849DB00AA
:100590000B445A60FB790133FB71FB79022BEFD9D5
:1005A000034B034A5A6100BF0C37BD4680BC7047FD
:1005B0001C00002080B485B000AF78600123FB737D
:1005C0001EE0FB7B134ADB0113447C334FF0807247
:1005D0001A60FB7B9B007A681A44FB7B12680D490A
:1005E000DB010B4478331A60FA7BFB7BD201443287
:1005F00008490A44084941F83320FB7B0133FB7367
:10060000FB7B022BDDD900BF00BF1437BD4680BC89
:10061000704700BF340000201C00002080B582B06D
:1006200000AF786072B6FFF7A5FF7868FFF7C2FFEA
:10063000114B124A1A60124B0F4A1A601248006896
:10064000006880F30988BFF36F8F1048006880F35B
:100650001488BFF36F8F7B681B680A4A13604FF4DE
:100660000040FFF739FF62B609480068874600BFBF
:100670000837BD4680BD00BF1C000020B000002030
:10068000B4010020B8010020B40100200C000020BB
:10069000B8010020021C0548FFE70168013901602C
:1006A0000430013A002AF8DCFFE770470000002020
:0C06B000EFF3098080F309887047000018
:1006BC003D03000899020008F50100080200000043
:04000005080003FFED
:00000001FF
