:020000040800F2
:1000000000000820970200089102000891020008F1
:10001000910200089102000891020008000000000F
:100020000000000000000000000000009102000835
:1000300091020008000000009102000891020008EF
:100040009102000891020008910200089102000844
:100050009102000891020008910200089102000834
:100060009102000891020008910200089102000824
:100070009102000891020008910200089102000814
:100080009102000891020008910200089102000804
:1000900091020008910200089102000891020008F4
:1000A00091020008910200089102000891020008E4
:1000B00091020008910200089102000891020008D4
:1000C00091020008910200089102000891020008C4
:1000D00091020008910200089102000891020008B4
:1000E00091020008910200089102000891020008A4
:1000F0009102000891020008910200089102000894
:100100009102000891020008910200089102000883
:100110009102000891020008910200089102000873
:100120009102000891020008910200089102000863
:100130009102000891020008910200089102000853
:100140009102000891020008910200089102000843
:100150009102000891020008910200089102000833
:100160009102000891020008910200089102000823
:100170009102000891020008910200089102000813
:100180009102000891020008910200089102000803
:1001900091020008910200089102000891020008F3
:1001A00091020008910200089102000891020008E3
:1001B00091020008910200089102000891020008D3
:1001C00091020008910200089102000891020008C3
:1001D00091020008910200089102000891020008B3
:1001E00091020008910200089102000891020008A3
:1001F0009102000880B485B000AF78600023FB60F6
:1002000002E0FB680133FB60FA687B689A42F8D32E
:1002100000BF00BF1437BD4680BC704780B500AF3B
:10022000184B1B6B174A43F002031363164B1B68F2
:10023000154A43F480431360134B5B68124A23F062
:1002400080035360104B9B680F4A23F44043936034
:100250000D4BDB680C4A23F44043D3600A4B9B6987
:10026000094A43F0800393610848FFF7C3FF064B38
:100270009B69054A43F4000393610448FFF7BAFF02
:10028000ECE700BF0038024000040240400D0300CC
:1002900080B400AFFEE780B586B000AF1B4A1C4BB0
:1002A000D31A9B107B601A4B7B611A4B3B61002376
:1002B000FB600AE03A69131D3B617B69191D796196
:1002C00012681A60FB680133FB60FA687B689A4227
:1002D000F0D3114A114BD31A9B107B600F4B7B61FB
:1002E0000023BB6007E07B691A1D7A6100221A6057
:1002F000BB680133BB60BA687B689A42F3D3FFF7EF
:100300008DFF00BF1837BD4680BD00BF0000002034
:100310000000002020030008000000200000002052
:040000050800029756
:00000001FF
