:020000040800F2
:10000000000008200B020008050200080502000895
:1000100005020008050200080502000800000000B3
:1000200000000000000000000000000005020008C1
:100030000502000800000000050200080502000893
:100040000502000805020008050200080502000874
:100050000502000805020008050200080502000864
:100060000502000805020008050200080502000854
:100070000502000805020008050200080502000844
:100080000502000805020008050200080502000834
:100090000502000805020008050200080502000824
:1000A0000502000805020008050200080502000814
:1000B0000502000805020008050200080502000804
:1000C00005020008050200080502000805020008F4
:1000D00005020008050200080502000805020008E4
:1000E00005020008050200080502000805020008D4
:1000F00005020008050200080502000805020008C4
:1001000005020008050200080502000805020008B3
:1001100005020008050200080502000805020008A3
:100120000502000805020008050200080502000893
:100130000502000805020008050200080502000883
:100140000502000805020008050200080502000873
:100150000502000805020008050200080502000863
:100160000502000805020008050200080502000853
:100170000502000805020008050200080502000843
:100180000502000805020008050200080502000833
:100190000502000805020008050200080502000823
:1001A0000502000805020008050200080502000813
:1001B0000502000805020008050200080502000803
:1001C00005020008050200080502000805020008F3
:1001D00005020008050200080502000805020008E3
:1001E00005020008050200080502000805020008D3
:1001F000050200080148024902680B68000000205F
:100200000400002080B400AFFEE780B586B000AFE8
:100210001A4A1B4BD31A7B60194B7B61194B3B610C
:100220000023FB600AE03A69131D3B617B69191DDD
:10023000796112681A60FB680133FB60FA687B68B9
:100240009A42F0D3104A114BD31A7B600F4B7B615B
:100250000023BB6007E07B691A1D7A6100221A60E7
:10026000BB680133BB60BA687B689A42F3D3FFF77F
:10027000C1FF00BF1837BD4680BD00BF0800002089
:100280000000002090020008080000200800002064
:08029000020000000300000061
:0400000508000000EF
:00000001FF
