:020000040800F2
:1000000000000820FB020008F5020008F5020008C5
:10001000F5020008F5020008F502000800000000E3
:10002000000000000000000000000000F5020008D1
:10003000F502000800000000F50200088D0200082B
:10004000F5020008F5020008F5020008F5020008B4
:10005000F5020008F5020008F5020008F5020008A4
:10006000F5020008F5020008F5020008F502000894
:10007000F5020008F5020008F5020008F502000884
:10008000F5020008F5020008F5020008F502000874
:10009000F5020008F5020008F5020008F502000864
:1000A000F5020008F5020008F5020008F502000854
:1000B000F5020008F5020008F5020008F502000844
:1000C000F5020008F5020008F5020008F502000834
:1000D000F5020008F5020008F5020008F502000824
:1000E000F5020008F5020008F5020008F502000814
:1000F000F5020008F5020008F5020008F502000804
:10010000F5020008F5020008F5020008F5020008F3
:10011000F5020008F5020008F5020008F5020008E3
:10012000F5020008F5020008F5020008F5020008D3
:10013000F5020008F5020008F5020008F5020008C3
:10014000F5020008F5020008F5020008F5020008B3
:10015000F5020008F5020008F5020008F5020008A3
:10016000F5020008F5020008F5020008F502000893
:10017000F5020008F5020008F5020008F502000883
:10018000F5020008F5020008F5020008F502000873
:10019000F5020008F5020008F5020008F502000863
:1001A000F5020008F5020008F5020008F502000853
:1001B000F5020008F5020008F5020008F502000843
:1001C000F5020008F5020008F5020008F502000833
:1001D000F5020008F5020008F5020008F502000823
:1001E000F5020008F5020008F5020008F502000813
:1001F000F502000880B483B000AF03463960FB719C
:1002000097F90730002B0ADB3B68DAB20C4997F903
:1002100007301201D2B20B4483F800230AE03B6896
:10022000DAB20849FB7903F00F03043B1201D2B2A2
:100230000B441A7600BF0C37BD4680BC704700BF28
:1002400000E100E000ED00E080B582B000AF786032
:100250007B68013BB3F1807F01D301230FE00A4AA1
:100260007B68013B53600F214FF0FF30FFF7C2FF67
:10027000054B00229A60044B07221A60002318469F
:100280000837BD4680BD00BF10E000E080B400AF7D
:1002900001BE00BFBD4680BC704780B582B000AFD4
:1002A0004FF40040FFF7D0FF084B3B603B6883F3FF
:1002B000098800BF02237B607B6883F3148800BF3A
:1002C00000BE00BF0837BD4680BD00BF7C000020D7
:1002D00080B500AFFFF7E1FF00BE4FF001004FF027
:1002E00002014FF003024FF00403F6E700BEFFE700
:1002F0007047000080B400AFFEE780B586B000AF65
:100300001A4A1B4BD31A7B60194B7B61194B3B611B
:100310000023FB600AE03A69131D3B617B69191DEC
:10032000796112681A60FB680133FB60FA687B68C8
:100330009A42F0D3104A114BD31A7B600F4B7B616A
:100340000023BB6007E07B691A1D7A6100221A60F6
:10035000BB680133BB60BA687B689A42F3D3FFF78E
:10036000B7FF00BF1837BD4680BD00BF00000020AA
:100370000000002080030008000000200000002092
:04000005080002FBF2
:00000001FF
